:020000040800F2
:10000000C806002089010008950800086907000853
:100010009108000861020008E70F000800000000D6
:10002000000000000000000000000000210A00089D
:10003000F90300080000000009090008350B00085A
:10004000A3010008A3010008A3010008A301000800
:10005000A3010008A3010008A30100082904000867
:10006000A3010008A3010008A3010008A3010008E0
:10007000A3010008A3010008A3010008A3010008D0
:10008000A3010008A3010008A3010008A3010008C0
:10009000A3010008A3010008A3010008A3010008B0
:1000A000A3010008FD0B0008A3010008A30100083C
:1000B000A3010008A3010008A3010008A301000890
:1000C000A3010008A3010008A3010008A301000880
:1000D000A3010008A3010008250D0008A3010008E2
:1000E000A3010008A3010008A301000800F002F822
:1000F00000F03AF80AA090E8000C82448344AAF188
:100100000107DA4501D100F02FF8AFF2090EBAE885
:100110000F0013F0010F18BFFB1A43F0010318473B
:10012000700F0000900F0000103A24BF78C878C10B
:10013000FAD8520724BF30C830C144BF04680C60ED
:10014000704700000023002400250026103A28BF35
:1001500078C1FBD8520728BF30C148BF0B60704739
:100160001FB51FBD10B510BD00F031F81146FFF7E7
:10017000F7FF00F083FF00F04FF803B4FFF7F2FF42
:1001800003BC00F053F800000948804709480047C5
:10019000FEE7FEE7FEE7FEE7FEE7FEE7FEE7FEE737
:1001A000FEE7FEE704480549054A064B7047000094
:1001B000390B0008ED000008C8000020C806002028
:1001C000C8020020C802002070477047704775467B
:1001D00000F028F8AE4605006946534620F00700B7
:1001E000854618B020B5FFF7DDFFBDE820404FF091
:1001F00000064FF000074FF000084FF0000B21F011
:100200000701AC46ACE8C009ACE8C009ACE8C009DD
:10021000ACE8C0098D4670470446AFF30080204625
:10022000FFF7ABFF00487047640000200149182029
:10023000ABBEFEE726000200704710B500F0B6FA2C
:100240004FF47A3000F088FD472140F2CF7000F083
:10025000A3FC00F08BFA00F0D1F800F011F910BD0A
:1002600000BFFEE710B55948006810B9282058496A
:1002700008805648001D006818B940F656105449C9
:10028000088052480068534908705348D0F8240148
:1002900048705248007800283FD0514800685149C2
:1002A0000968401A504908600846006808B90120EA
:1002B00001E04D4800684C49086008460068B0F508
:1002C000FA7F03D900204949088008E046480068C1
:1002D0004FF4FA71B1FBF0F000B2444908803F4896
:1002E0000078012806D141480088404200B23F49C9
:1002F000088006E039480078022802D000203B49F7
:100300000880374800683749086034480078384921
:10031000087000203149087033E0314800683149E5
:100320000968401A3049096888422AD92C4800686F
:100330002C490968401A2C49086008460068B0F545
:10034000FA7F03D900202949088008E02648006880
:100350004FF4FA71B1FBF0F000B2244908801F4855
:100360000078012806D121480088404200B21F4988
:10037000088006E019480078022802D000201B49B6
:1003800008801C480078F0B91849B1F9001005221E
:1003900091FBF2F148B20E490988C1F38712154961
:1003A0008A700C4909780A4A128841EA8201094A8E
:1003B000527841EA4201CAB20E49CA70087101215D
:1003C0000C4A117000BF00F03BFA10BD20812142A1
:1003D000120000200C0000200080214202000020BA
:1003E000140000200400002008000020000000206D
:1003F00003000020440000207047000008B50121E0
:10040000042000F093FAC320ADF8000004208DF81A
:10041000030003208DF802006946024800F0CEF880
:1004200008BD00000008014010B511488068401C5C
:100430000F4988600F480068012809D10E480088DC
:10044000401E00B20C49088001200C49087008E0E9
:1004500009480088401C00B207490880022007496B
:100460000870022000F034F8022000F037F810BDC8
:10047000580000200001214212000020020000204C
:100480000EB50121084600F051FA0121002000F0CC
:1004900075F800208DF808000C208DF80900012067
:1004A0008DF80A000220019001A800F01DF8072035
:1004B0008DF8000002208DF8010000208DF8020068
:1004C00001208DF80300684600F0E6F90EBD00003B
:1004D00001490860704700001404014001490860A8
:1004E0007047000014040140002123498279002A4A
:1004F0003AD00A46126803689A430B461A600A1DEE
:10050000126803689A430B1D1A60027911440A6845
:1005100003681A430A60184A0832126803689A434B
:10052000154B08331A601A1D126803689A43124B60
:100530000C331A604279102A0ED11A1F1268036810
:100540001A430D4B08331A601A1D126803681A43C8
:10055000094B0C331A600DE00749427911440A68CF
:1005600003681A430A6005E0027911440A680368C7
:100570009A430A60704700000004014030B5002231
:100580008B071C0F0F2303FA04F20B4B8C1053F84C
:1005900024309343084C8D1044F8253023468C10AA
:1005A00053F824308C07240F00FA04F42343024C40
:1005B0008D1044F8253030BD080001402DE9F04190
:1005C000024600250026002000230024002791F881
:1005D00003C00CF00F0591F803C00CF0100CBCF137
:1005E000000F03D091F802C04CEA050591F800C055
:1005F000BCF1000F31D0146800202BE04FF0010C4B
:100600000CFA00F3B1F800C00CEA03069E4220D1B8
:1006100083004FF00F0C0CFA03F7BC4305FA03FC00
:100620004CEA040491F803C0BCF1280F06D14FF046
:10063000010C0CFA00FCC2F814C00AE091F803C0E7
:10064000BCF1480F05D14FF0010C0CFA00FCC2F8C8
:1006500010C0401C0828D1D31460B1F800C0BCF110
:10066000FF0F34DD546800202EE000F1080C4FF03D
:10067000010808FA0CF3B1F800C00CEA03069E4228
:1006800021D183004FF00F0C0CFA03F7BC4305FA9D
:1006900003FC4CEA040491F803C0BCF1280F05D117
:1006A00000F1080C08FA0CF8C2F8148091F803C0A5
:1006B000BCF1480F07D100F1080C4FF0010808FA0F
:1006C0000CF8C2F81080401C0828CED35460BDE856
:1006D000F0810000F0B50A46002300240021002527
:1006E00000F00046B6F1004F02D11D4EF16901E065
:1006F0001B4E7168C0F3034583B200F44016B6F593
:10070000401F08D121F07061154E766826F07066A2
:10071000134F7E6012E000F48016B6F5801F06D1FC
:10072000032606FA05F4A14341F0706106E0460D88
:10073000360103FA06F6B14341F0706122B1460D6D
:10074000360103FA06F6314300F00046B6F1004FD9
:1007500002D1034EF16101E0014E7160F0BD000075
:10076000000001400161704700BFFEE708B50121AC
:10077000082000F0DBF80121084600F0D7F801213D
:100780000848FFF7A7FF4FF44070ADF8000048207D
:100790008DF8030003208DF8020069460248FFF738
:1007A0000DFF08BD00023000000C014008B501211A
:1007B000082000F0BBF80121084600F0B7F801213D
:1007C0000A48FFF787FFC020ADF8000010208DF821
:1007D000030003208DF8020069460548FFF7EEFE8E
:1007E000C0210348FFF7BEFF08BD00000002300033
:1007F000000C014010480068FA21B0FBF1F201FB47
:10080000120038B90D48006808B9012000E0002046
:100810000A49086009487C38006818B107487838E8
:10082000006820B900200549091F086003E0012085
:100830000249091F08607047140000209C81214272
:1008400010B54021104800F0FDFA01281BD10F48D7
:100850000078012817D15A200C494870A5210B486F
:1008600041718279401C815C074800F0B8FB074861
:100870008079401C0549887108468079042802DD8A
:1008800000200870887110BD004400404400002022
:1008900000BFFEE77047000070B5002100230F2263
:1008A000C47804B3154C246804F4E064C4F5E0642F
:1008B000210AC1F10403CA40447804FA03F18478A0
:1008C0001440214309010E4C0678A155047804F028
:1008D0001F050124AC4005786D11AD0005F1E02540
:1008E000C5F8004109E0047804F01F050124AC407C
:1008F000044D0678761145F8264070BD0CED00E0F9
:1009000000E400E080E100E07047000029B1064A01
:10091000D2690243044BDA6104E0034AD26982439C
:10092000014BDA61704700000010024029B1064A0D
:1009300092690243044B9A6104E0034A926982433C
:10094000014B9A61704700000010024030B5002151
:100950000022002400232D4D6D6805F00C0121B10B
:10096000042905D0082923D105E0294D056022E09E
:10097000274D05601FE0254D6D6805F47012234D6D
:100980006D6805F48034022505EB92421CB9214DB7
:10099000554305600BE01D4D6D6805F400351DB134
:1009A0001C4D5543056002E0194D5543056002E0BA
:1009B000174D056000BF00BF144D6D6805F0F001D4
:1009C0000909154D6B5C0568DD4045600F4D6D688C
:1009D00005F4E061090A104D6B5C4568DD408560F7
:1009E0000A4D6D6805F46051C90A0B4D6B5C456892
:1009F000DD40C560054D6D6805F44041890B074D2C
:100A00006B5CC568B5FBF3F5056130BD00100240B5
:100A100000127A0000093D00300000204000002054
:100A2000704710B500F002F810BD00000CB50020B2
:100A3000019000903348006840F4803031490860EC
:100A400000BF3048006800F4003000900198401C5E
:100A50000190009818B90198B0F5A06FF1D129481C
:100A6000006800F4003010B10120009001E0002087
:100A700000900098012843D12348006840F01000FE
:100A8000214908600846006820F003000860084615
:100A9000006840F0020008601A4840681949486040
:100AA0000846406848600846406840F480604860F6
:100AB0000846406820F47C1048600846406840F4CE
:100AC000E81048600846006840F08070086000BF89
:100AD0000C48006800F000700028F9D00948406810
:100AE00020F00300074948600846406840F00200D3
:100AF000486000BF0348406800F00C000828F9D1A6
:100B00000CBD00000010024000200240042808D163
:100B10004FF0E021096941F004014FF0E02211613A
:100B200007E04FF0E021096921F004014FF0E022D5
:100B3000116170477047000010B51348006840F01D
:100B400001001149086008464068104908400E49F4
:100B50004860084600680E4908400B49086008468E
:100B6000006820F4802008600846406820F4FE00F9
:100B700048604FF41F008860FFF753FF4FF000609C
:100B80000449086010BD0000001002400000FFF89A
:100B9000FFFFF6FE08ED00E07FB505460C4601219B
:100BA000C802FFF7C3FEADF80850ADF804400020BE
:100BB000ADF80A00ADF806008DF80C0001A90E484A
:100BC00000F05EF8012211460B4800F04FF81920A2
:100BD0008DF8000000208DF8010003208DF8020040
:100BE00001208DF803006846FFF756FE01210248F8
:100BF00000F01FF87FBD0000002C014010B501215E
:100C0000084800F022F860B10121064800F00EF813
:100C100005480068401C04490860FFF7EBFDFFF73A
:100C200021FB10BD002C014014000020CA430282A9
:100C3000704721B1028842F00102028004E002887C
:100C40004FF6FE731A400280704730B5024600200E
:100C500000230024158A05EA0103958905EA0104A9
:100C600013B10CB1012000E0002030BD1AB183891E
:100C70000B43838102E083898B43838170470000AB
:100C8000002202881D4B98420ED01D4B98420BD07B
:100C9000B0F1804F08D01B4B984205D01A4B9842B8
:100CA00002D01A4B984204D14FF68F731A404B88EA
:100CB0001A43174B984207D0164B984204D04FF670
:100CC000FF431A40CB881A4302808B8883850B88A8
:100CD00003850A4B98420BD0094B984208D00E4B23
:100CE000984205D00D4B984202D00D4B984201D14D
:100CF0000B7A03860123838270470000002C014099
:100D0000003401400004004000080040000C004096
:100D10000010004000140040004001400044014029
:100D20000048014010B540F22551094800F097F8FD
:100D300068B12021064800F061F840F225510448CE
:100D400000F065F8024800F045F90249087010BD4E
:100D5000004400401800002010B586B00446012170
:100D60004804FFF7D3FD01210420FFF7DFFD042035
:100D7000ADF8140003208DF8160018208DF8170028
:100D800005A91C48FFF71AFC0820ADF81400042040
:100D90008DF8170005A91748FFF710FC26208DF8DD
:100DA000000003208DF801008DF8020001208DF86D
:100DB00003006846FFF770FD01940020ADF80800BD
:100DC000ADF80A00ADF80C00ADF810000C20ADF83D
:100DD0000E0001A9084800F091F8012240F22551C7
:100DE000054800F066F80121034800F01FF806B03E
:100DF00010BD0000000801400044004001F40072F2
:100E0000B2F5007F00D100BFCA430280704710B521
:100E10000022002340F66A14A14200D100BF0A124A
:100E200001249440A3B2DC43048010BD21B1828927
:100E300042F40052828104E082894DF6FF731A4029
:100E40008281704702460020B1F5007F00D100BFCB
:100E500013880B400BB1012000E00020704770B5F3
:100E60000246002400230025002040F66A16B14205
:100E700000D100BFC1F3421501F01F03012606FA9D
:100E800003F3012D02D19689334006E0022D02D1F1
:100E9000168A334001E0968A33400C12012606FA86
:100EA00004F41688344013B10CB1012000E0002096
:100EB00070BDF0B50346002400260025002040F652
:100EC0006A17B94200D100BF1846C1F3421401F0BD
:100ED0001F06012707FA06F5012C01D10C3004E0AA
:100EE000022C01D1103000E014301AB107682F43F2
:100EF000076002E00768AF430760F0BD2DE9F047E7
:100F000086B005460E460024A24600BFA146002733
:100F1000B08900B100BF2F462C8A4CF6FF70044008
:100F2000F08804432C82AC894EF6F3100440B0885C
:100F300031890843718908430443AC81AC8A4FF678
:100F4000FF400440B0890443AC8201A8FFF7FEFCD7
:100F50001F48874202D1DDF810A001E0DDF80CA0A7
:100F6000A88900F4004040B10AEBCA0000EB0A1067
:100F700031684900B0FBF1F807E00AEBCA0000EB6A
:100F80000A1031688900B0FBF1F86420B8FBF0F07A
:100F900004012009642101FB1089A88900F40040A4
:100FA00040B1322000EBC900B0FBF1F000F00700C7
:100FB000044308E0322000EB09106421B0FBF1F09B
:100FC00000F00F0004432C8106B0BDE8F08700005C
:100FD0000038014001468888C0F308007047C1F31B
:100FE00008028280704700BFFEE7000010B56FF076
:100FF0000400FFF78BFD0A4800680A49B0FBF1F0D6
:10100000094908700846007800EB4001C1EBC010A8
:101010004FF6FF7101EAC0000449088010BD0000CE
:101020001C00002000127A000E000020100000209A
:101030000146114A12884A434FF0E0235A610022C8
:101040009A611A46126942F001021A6100BF4FF01C
:10105000E022106900F001021AB100F48032002A87
:10106000F5D04FF0E022126922F001024FF0E023A8
:101070001A6100229A61704710000020FFF7B6FF46
:10108000C820FFF7D5FFFFF7D8F800BFFEE7000044
:10109000B0100008000000205800000028010008DF
:1010A00008110008580000207006000044010008E4
:1010B0000000000000000000000000000000000030
:1010C00000002800000000000000000000A24A0408
:1010D00000000000000000000102030406070809E8
:1010E00000000000010203040102030406070809CE
:1010F00002040608005A000000A5000000000000DD
:081100000000000000000000E7
:04000005080000ED02
:00000001FF
