:020000040800F2
:10000000B0070020890100086D080008A10700085A
:10001000690800085D0200080F11000800000000D8
:10002000000000000000000000000000F9090008C6
:100030001503000800000000E1080008DF0B0008BD
:10004000A3010008A3010008A3010008A301000800
:10005000A3010008A3010008A3010008B9030008D8
:10006000A3010008A301000811040008A30100086F
:10007000A3010008A3010008A3010008A3010008D0
:10008000A3010008A3010008A3010008A3010008C0
:10009000A3010008A3010008A3010008350400081B
:1000A000A3010008250D0008A3010008A301000812
:1000B000A3010008A3010008A3010008A301000890
:1000C000A3010008A3010008A3010008A301000880
:1000D000A3010008A30100084D0E0008A3010008B9
:1000E00019030008A3010008A301000800F002F8AA
:1000F00000F03AF80AA090E8000C82448344AAF188
:100100000107DA4501D100F02FF8AFF2090EBAE885
:100110000F0013F0010F18BFFB1A43F0010318473B
:1001200098100000B8100000103A24BF78C878C1B9
:10013000FAD8520724BF30C830C144BF04680C60ED
:10014000704700000023002400250026103A28BF35
:1001500078C1FBD8520728BF30C148BF0B60704739
:100160001FB51FBD10B510BD00F031F81146FFF7E7
:10017000F7FF01F017F800F04FF803B4FFF7F2FFB4
:1001800003BC00F053F800000948804709480047C5
:10019000FEE7FEE7FEE7FEE7FEE7FEE7FEE7FEE737
:1001A000FEE7FEE704480549054A064B7047000094
:1001B000E10B0008ED000008B0010020B0070020AE
:1001C000B0030020B00300207047704770477546A9
:1001D00000F028F8AE4605006946534620F00700B7
:1001E000854618B020B5FFF7DDFFBDE820404FF091
:1001F00000064FF000074FF000084FF0000B21F011
:100200000701AC46ACE8C009ACE8C009ACE8C009DD
:10021000ACE8C0098D4670470446AFF30080204625
:10022000FFF7ABFF004870474C0100200149182040
:10023000ABBEFEE726000200704710B500F0B2FA30
:100240004FF47A3000F01CFE472140F2CF7000F0EE
:1002500037FD00F0F5FC00F001F910BD00BFFEE72E
:1002600010B522480068224908702248D0F81C01C5
:10027000214908701F48D0F82001204908701D4806
:10028000D0F824011E4908701948007810B92820B8
:100290001C4908801848007818B940F2A460194930
:1002A000088000F087FC00F037FC17480078A0B900
:1002B00014480088010A14488170124801781248D5
:1002C000C1700B4800780C49097840EA4100C1B27E
:1002D0000D48017101200C49087000F09DFA0B488F
:1002E00000F017FF0A4800F089FB10BD18012242F8
:1002F0000000002000002242010000200200002037
:10030000030000201400002048000020040000200A
:100310004A0100207047000010B54FF4806000F0E3
:10032000F3F8E8B14FF4806000F0E2F84FF4806039
:1003300000F0E4F81D480068401C1C4908601C4897
:100340000068012806D11B480088401C00B21949EA
:10035000088005E017480088401E00B21549088053
:100360004FF4006000F0D0F860B14FF4006000F08E
:10037000BFF84FF4006000F0C1F80C484068401C22
:100380000A4948604FF4805000F0BEF860B14FF465
:10039000805000F0ADF84FF4805000F0AFF8034803
:1003A0008068401C0149886010BD00005C0000208E
:1003B000148121421400002010B511488068401CAF
:1003C0000F4988600F480078012812D10E48006854
:1003D00030B90E480088401E00B20C49088005E084
:1003E0000A480088401C00B20849088000200549DE
:1003F0000870022000F07CF8022000F07FF810BDA9
:100400005C0000201600002004012142140000209E
:1004100010B507480068401C05490860102000F02E
:1004200073F8102000F064F8102000F067F810BD99
:100430005C00002010B507484068401C0549486032
:10044000012005490870202000F052F8202000F01B
:1004500055F810BD5C000020160000200EB50121EB
:10046000084600F04FFA0421012000F0A3F8102004
:10047000019000208DF808000C208DF80900012063
:100480008DF80A0001A800F04BF80521012000F0CA
:1004900091F82020019001A800F042F801210020ED
:1004A00000F088F810208DF809000220019001A8C2
:1004B00000F036F817208DF8000000208DF80100BC
:1004C0008DF8020001208DF80300684600F0D0F995
:1004D00007208DF8000000208DF801008DF8020043
:1004E00001208DF80300684600F0C2F90EBD00003F
:1004F0000149086070470000140401400149086088
:10050000704700001404014001460020034A1268AD
:100510000A400AB1012000E00020704714040140A5
:10052000002123498279002A3AD00A4612680368DA
:100530009A430B461A600A1D126803689A430B1D02
:100540001A60027911440A6803681A430A60184A5B
:100550000832126803689A43154B08331A601A1D53
:10056000126803689A43124B0C331A604279102ABE
:100570000ED11A1F126803681A430D4B08331A6014
:100580001A1D126803681A43094B0C331A600DE0F8
:100590000749427911440A6803681A430A6005E072
:1005A000027911440A6803689A430A6070470000A0
:1005B0000004014030B500228B071C0F0F2303FA03
:1005C00004F20B4B8C1053F824309343084C8D10DD
:1005D00044F8253023468C1053F824308C07240F20
:1005E00000FA04F42343024C8D1044F8253030BD4A
:1005F000080001402DE9F0410246002500260020B8
:1006000000230024002791F803C00CF00F0591F897
:1006100003C00CF0100CBCF1000F03D091F802C025
:100620004CEA050591F800C0BCF1000F31D0146808
:1006300000202BE04FF0010C0CFA00F3B1F800C0E1
:100640000CEA03069E4220D183004FF00F0C0CFAF7
:1006500003F7BC4305FA03FC4CEA040491F803C019
:10066000BCF1280F06D14FF0010C0CFA00FCC2F8C7
:1006700014C00AE091F803C0BCF1480F05D14FF057
:10068000010C0CFA00FCC2F810C0401C0828D1D3A1
:100690001460B1F800C0BCF1FF0F34DD54680020D5
:1006A0002EE000F1080C4FF0010808FA0CF3B1F845
:1006B00000C00CEA03069E4221D183004FF00F0CCC
:1006C0000CFA03F7BC4305FA03FC4CEA040491F866
:1006D00003C0BCF1280F05D100F1080C08FA0CF892
:1006E000C2F8148091F803C0BCF1480F07D100F1A3
:1006F000080C4FF0010808FA0CF8C2F81080401CF2
:100700000828CED35460BDE8F0810000F0B50A4659
:10071000002300240021002500F00046B6F1004F20
:1007200002D11D4EF16901E01B4E7168C0F3034513
:1007300083B200F44016B6F5401F08D121F0706175
:10074000154E766826F07066134F7E6012E000F456
:100750008016B6F5801F06D1032606FA05F4A143DC
:1007600041F0706106E0460D360103FA06F6B1432A
:1007700041F0706122B1460D360103FA06F63143AD
:1007800000F00046B6F1004F02D1034EF16101E0E6
:10079000014E7160F0BD0000000001400161704732
:1007A00000BFFEE708B50121042000F0ABF80121ED
:1007B000084600F0A7F801210A48FFF7A7FF21200B
:1007C000ADF8000010208DF8030003208DF8020022
:1007D00069460548FFF70EFF21210348FFF7DEFFBA
:1007E00008BD000000023000000801400848006811
:1007F000FA21B0FBF1F201FB120038B9054800689C
:1008000008B9012000E0002002490860704700009C
:10081000180000209401214210B54021104800F03A
:10082000A5FB01281BD10F480078012817D15A20B9
:100830000C494870A5210B4841718279401C815CAC
:10084000074800F060FC07488079401C0549887122
:1008500008468079042802DD00200870887110BDE8
:10086000004400404800002000BFFEE77047000041
:1008700070B5002100230F22C47804B3154C2468FE
:1008800004F4E064C4F5E064210AC1F10403CA4041
:10089000447804FA03F184781440214309010E4C92
:1008A0000678A155047804F01F050124AC400578B2
:1008B0006D11AD0005F1E025C5F8004109E00478AF
:1008C00004F01F050124AC40044D0678761145F86C
:1008D000264070BD0CED00E000E400E080E100E0A7
:1008E0007047000029B1064AD2690243044BDA611D
:1008F00004E0034AD2698243014BDA617047000089
:100900000010024029B1064A92690243044B9A61E1
:1009100004E0034A92698243014B9A6170470000E8
:100920000010024030B500210022002400232D4D8C
:100930006D6805F00C0121B1042905D0082923D1E7
:1009400005E0294D056022E0274D05601FE0254D9B
:100950006D6805F47012234D6D6805F4803402252E
:1009600005EB92421CB9214D554305600BE01D4D2E
:100970006D6805F400351DB11C4D5543056002E05E
:10098000194D5543056002E0174D056000BF00BFDB
:10099000144D6D6805F0F0010909154D6B5C056893
:1009A000DD4045600F4D6D6805F4E061090A104DAA
:1009B0006B5C4568DD4085600A4D6D6805F46051EB
:1009C000C90A0B4D6B5C4568DD40C560054D6D681F
:1009D00005F44041890B074D6B5CC568B5FBF3F529
:1009E000056130BD0010024000127A0000093D0090
:1009F000340000204400002070470000017801EB23
:100A00004102C2EBC1114FF6FF7202EA0111074A1F
:100A10001180417801EB4102C2EBC1114FF6FF7228
:100A200002EA0111014A121D11807047340400408E
:100A300010B500F001F810BD0CB500200190009039
:100A40003348006840F480303149086000BF3048C6
:100A5000006800F4003000900198401C019000985C
:100A600018B90198B0F5A06FF1D12948006800F4D9
:100A7000003010B10120009001E0002000900098AB
:100A8000012843D12348006840F010002149086044
:100A90000846006820F0030008600846006840F03F
:100AA000020008601A4840681949486008464068D2
:100AB00048600846406840F48060486008464068E6
:100AC00020F47C1048600846406840F4E810486014
:100AD0000846006840F08070086000BF0C4800685D
:100AE00000F000700028F9D00948406820F00300A9
:100AF000074948600846406840F00200486000BF6F
:100B00000348406800F00C000828F9D10CBD000033
:100B100000100240002002401FB500220092019206
:100B2000029203920020002100BF0CE000222DF869
:100B300010201F4A135C093202EB00121C4C247A6D
:100B40001355421CD0B20828F0DB002012E000212F
:100B50000CE03DF81030164A093202EB0012525CEC
:100B60001A4492B22DF810204A1CD1B21029F0DBA1
:100B7000421CD0B20828EADB00200BE03DF8102030
:100B8000082A01DD012300E00023094A89321354B9
:100B9000421CD0B20828F1DB054A127A0F2A03DA88
:100BA000034A127A521C00E00022014B1A721FBD48
:100BB000680000207047042808D14FF0E02109693F
:100BC00041F004014FF0E022116107E04FF0E02115
:100BD000096921F004014FF0E0221161704770476C
:100BE00010B51348006840F001001149086008463C
:100BF0004068104908400E494860084600680E49A0
:100C000008400B4908600846006820F4802008600E
:100C10000846406820F4FE0048604FF41F008860DA
:100C2000FFF706FF4FF000600449086010BD0000A8
:100C3000001002400000FFF8FFFFF6FE08ED00E0A4
:100C400008B501211020FFF75DFE01210846FFF7DE
:100C500059FE01211648FFF759FD4FF47070ADF8A9
:100C6000000048208DF8030003208DF8020069463B
:100C70001048FFF7BFFC3020ADF8000004208DF8CD
:100C8000030003208DF8020069460B48FFF7B2FC11
:100C90004FF48170ADF8000004208DF803000320AC
:100CA0008DF8020069460548FFF7A4FC08BD000066
:100CB0000002300000100140000C0140000801401B
:100CC0007FB505460C460121C802FFF71BFEADF8B3
:100CD0000850ADF804400020ADF80A00ADF8060059
:100CE0008DF80C0001A90E4800F05EF801221146B3
:100CF0000B4800F04FF819208DF8000000208DF807
:100D0000010003208DF8020001208DF803006846E1
:100D1000FFF7AEFD0121024800F01FF87FBD000083
:100D2000002C014010B50121084800F022F860B104
:100D30000121064800F00EF805480068401C0449EF
:100D40000860FFF753FDFFF78BFA10BD002C014040
:100D500018000020CA430282704721B1028842F085
:100D60000102028004E002884FF6FE731A400280FE
:100D7000704730B50246002000230024158A05EA9A
:100D80000103958905EA010413B10CB1012000E0CB
:100D9000002030BD1AB183890B43838102E083892F
:100DA0008B43838170470000002202881D4B9842CC
:100DB0000ED01D4B98420BD0B0F1804F08D01B4B8A
:100DC000984205D01A4B984202D01A4B984204D14F
:100DD0004FF68F731A404B881A43174B984207D02F
:100DE000164B984204D04FF6FF431A40CB881A4363
:100DF00002808B8883850B8803850A4B98420BD031
:100E0000094B984208D00E4B984205D00D4B9842A2
:100E100002D00D4B984201D10B7A038601238382C5
:100E200070470000002C01400034014000040040E5
:100E300000080040000C004000100040001400407A
:100E400000400140004401400048014010B540F21C
:100E50002551094800F097F868B12021064800F0B4
:100E600061F840F22551044800F065F8024800F0AE
:100E700045F90249087010BD004400401C000020E4
:100E800010B586B0044601214804FFF72BFD01216F
:100E90000420FFF737FD0420ADF8140003208DF87F
:100EA000160018208DF8170005A91C48FFF7A2FBB3
:100EB0000820ADF8140004208DF8170005A9174884
:100EC000FFF798FB26208DF8000003208DF8010025
:100ED0008DF8020001208DF803006846FFF7C8FC7A
:100EE00001940020ADF80800ADF80A00ADF80C0040
:100EF000ADF810000C20ADF80E0001A9084800F074
:100F000091F8012240F22551054800F066F80121D0
:100F1000034800F01FF806B010BD000000080140B3
:100F20000044004001F40072B2F5007F00D100BF20
:100F3000CA430280704710B50022002340F66A14AD
:100F4000A14200D100BF0A1201249440A3B2DC43A5
:100F5000048010BD21B1828942F40052828104E0F4
:100F600082894DF6FF731A40828170470246002045
:100F7000B1F5007F00D100BF13880B400BB10120F9
:100F800000E00020704770B50246002400230025D1
:100F9000002040F66A16B14200D100BFC1F34215ED
:100FA00001F01F03012606FA03F3012D02D19689F1
:100FB000334006E0022D02D1168A334001E0968AC2
:100FC00033400C12012606FA04F41688344013B19B
:100FD0000CB1012000E0002070BDF0B503460024F4
:100FE00000260025002040F66A17B94200D100BF54
:100FF0001846C1F3421401F01F06012707FA06F54F
:10100000012C01D10C3004E0022C01D1103000E0A1
:1010100014301AB107682F43076002E00768AF4336
:101020000760F0BD2DE9F04786B005460E46002466
:10103000A24600BFA1460027B08900B100BF2F46DD
:101040002C8A4CF6FF700440F08804432C82AC8953
:101050004EF6F3100440B088318908437189084383
:101060000443AC81AC8A4FF6FF400440B08904438E
:10107000AC8201A8FFF756FC1F48874202D1DDF879
:1010800010A001E0DDF80CA0A88900F4004040B1F8
:101090000AEBCA0000EB0A1031684900B0FBF1F816
:1010A00007E00AEBCA0000EB0A1031688900B0FBC8
:1010B000F1F86420B8FBF0F004012009642101FB81
:1010C0001089A88900F4004040B1322000EBC9002B
:1010D000B0FBF1F000F00700044308E0322000EB21
:1010E00009106421B0FBF1F000F00F0004432C81E3
:1010F00006B0BDE8F087000000380140014688884E
:10110000C0F308007047C1F308028280704700BF37
:10111000FEE7704710B56FF00400FFF74CFD0A487A
:1011200000680A49B0FBF1F00949087008460078E8
:1011300000EB4001C1EBC0104FF6FF7101EAC000A7
:101140000449088010BD00002000002000127A0031
:1011500010000020120000200146114A12884A4364
:101160004FF0E0235A6100229A611A46126942F058
:1011700001021A6100BF4FF0E022106900F0010285
:101180001AB100F48032002AF5D04FF0E022126943
:1011900022F001024FF0E0231A6100229A617047A9
:1011A00012000020FFF7B6FFC820FFF7D5FFFFF7BA
:1011B00044F800BFFEE70000D8110008000000203E
:1011C0005C00000028010008341200085C000020C8
:1011D0005407000044010008000000000000000067
:1011E00000000000000000000000000000000000FF
:1011F000000000000000000000A24A0400000000FF
:1012000000000000010203040607080900000000B6
:101210000102030401020304060708090204060888
:10122000005A000000A500000000000000000000BF
:0412300000000000BA
:04000005080000ED02
:00000001FF
